{
  "contractName": "VotingHubV1",
  "abi": [
    {
      "inputs": [
        {
          "internalType": "address",
          "name": "_treasury",
          "type": "address"
        }
      ],
      "stateMutability": "nonpayable",
      "type": "constructor"
    },
    {
      "anonymous": false,
      "inputs": [
        {
          "indexed": true,
          "internalType": "address",
          "name": "previousOwner",
          "type": "address"
        },
        {
          "indexed": true,
          "internalType": "address",
          "name": "newOwner",
          "type": "address"
        }
      ],
      "name": "OwnershipTransferred",
      "type": "event"
    },
    {
      "anonymous": false,
      "inputs": [
        {
          "indexed": true,
          "internalType": "uint256",
          "name": "id",
          "type": "uint256"
        },
        {
          "indexed": true,
          "internalType": "address",
          "name": "proposer",
          "type": "address"
        },
        {
          "indexed": false,
          "internalType": "uint256",
          "name": "opens",
          "type": "uint256"
        },
        {
          "indexed": false,
          "internalType": "uint256",
          "name": "closes",
          "type": "uint256"
        },
        {
          "indexed": false,
          "internalType": "string",
          "name": "uniqueHash",
          "type": "string"
        }
      ],
      "name": "ProposalCreated",
      "type": "event"
    },
    {
      "anonymous": false,
      "inputs": [
        {
          "indexed": true,
          "internalType": "uint256",
          "name": "id",
          "type": "uint256"
        }
      ],
      "name": "ProposalFailed",
      "type": "event"
    },
    {
      "anonymous": false,
      "inputs": [
        {
          "indexed": true,
          "internalType": "uint256",
          "name": "id",
          "type": "uint256"
        },
        {
          "indexed": false,
          "internalType": "uint256",
          "name": "totalVotes",
          "type": "uint256"
        },
        {
          "indexed": false,
          "internalType": "uint256",
          "name": "votesInFavor",
          "type": "uint256"
        }
      ],
      "name": "ProposalPassed",
      "type": "event"
    },
    {
      "anonymous": false,
      "inputs": [
        {
          "indexed": true,
          "internalType": "address",
          "name": "voter",
          "type": "address"
        },
        {
          "indexed": false,
          "internalType": "uint256",
          "name": "proposalId",
          "type": "uint256"
        },
        {
          "indexed": false,
          "internalType": "enum VotingHubV1.Choice",
          "name": "voterChoice",
          "type": "uint8"
        },
        {
          "indexed": false,
          "internalType": "uint256",
          "name": "votes",
          "type": "uint256"
        }
      ],
      "name": "VoteCast",
      "type": "event"
    },
    {
      "inputs": [],
      "name": "TOLL_BURN_RATE",
      "outputs": [
        {
          "internalType": "uint256",
          "name": "",
          "type": "uint256"
        }
      ],
      "stateMutability": "view",
      "type": "function",
      "constant": true
    },
    {
      "inputs": [],
      "name": "TREASURY_ADDRESS",
      "outputs": [
        {
          "internalType": "address",
          "name": "",
          "type": "address"
        }
      ],
      "stateMutability": "view",
      "type": "function",
      "constant": true
    },
    {
      "inputs": [
        {
          "internalType": "address",
          "name": "_toAdd",
          "type": "address"
        }
      ],
      "name": "addAuthorized",
      "outputs": [],
      "stateMutability": "nonpayable",
      "type": "function"
    },
    {
      "inputs": [
        {
          "internalType": "address",
          "name": "",
          "type": "address"
        }
      ],
      "name": "authorized",
      "outputs": [
        {
          "internalType": "bool",
          "name": "",
          "type": "bool"
        }
      ],
      "stateMutability": "view",
      "type": "function",
      "constant": true
    },
    {
      "inputs": [
        {
          "internalType": "address",
          "name": "_address",
          "type": "address"
        }
      ],
      "name": "isAuthorized",
      "outputs": [
        {
          "internalType": "bool",
          "name": "",
          "type": "bool"
        }
      ],
      "stateMutability": "view",
      "type": "function",
      "constant": true
    },
    {
      "inputs": [
        {
          "internalType": "address",
          "name": "",
          "type": "address"
        }
      ],
      "name": "latestProposalIds",
      "outputs": [
        {
          "internalType": "uint256",
          "name": "",
          "type": "uint256"
        }
      ],
      "stateMutability": "view",
      "type": "function",
      "constant": true
    },
    {
      "inputs": [],
      "name": "name",
      "outputs": [
        {
          "internalType": "string",
          "name": "",
          "type": "string"
        }
      ],
      "stateMutability": "view",
      "type": "function",
      "constant": true
    },
    {
      "inputs": [],
      "name": "owner",
      "outputs": [
        {
          "internalType": "address",
          "name": "",
          "type": "address"
        }
      ],
      "stateMutability": "view",
      "type": "function",
      "constant": true
    },
    {
      "inputs": [],
      "name": "proposalCount",
      "outputs": [
        {
          "internalType": "uint256",
          "name": "",
          "type": "uint256"
        }
      ],
      "stateMutability": "view",
      "type": "function",
      "constant": true
    },
    {
      "inputs": [
        {
          "internalType": "uint256",
          "name": "",
          "type": "uint256"
        }
      ],
      "name": "proposals",
      "outputs": [
        {
          "internalType": "uint256",
          "name": "id",
          "type": "uint256"
        },
        {
          "internalType": "address",
          "name": "proposer",
          "type": "address"
        },
        {
          "internalType": "bool",
          "name": "isProposerAuth",
          "type": "bool"
        },
        {
          "internalType": "uint256",
          "name": "opens",
          "type": "uint256"
        },
        {
          "internalType": "uint256",
          "name": "closes",
          "type": "uint256"
        },
        {
          "internalType": "uint256",
          "name": "toll",
          "type": "uint256"
        },
        {
          "internalType": "uint256",
          "name": "passingPerc",
          "type": "uint256"
        },
        {
          "internalType": "uint256",
          "name": "forVotes",
          "type": "uint256"
        },
        {
          "internalType": "uint256",
          "name": "againstVotes",
          "type": "uint256"
        },
        {
          "internalType": "uint256",
          "name": "nullVotes",
          "type": "uint256"
        },
        {
          "internalType": "enum VotingHubV1.ProposalState",
          "name": "currentState",
          "type": "uint8"
        }
      ],
      "stateMutability": "view",
      "type": "function",
      "constant": true
    },
    {
      "inputs": [
        {
          "internalType": "address",
          "name": "",
          "type": "address"
        },
        {
          "internalType": "uint256",
          "name": "",
          "type": "uint256"
        }
      ],
      "name": "receipts",
      "outputs": [
        {
          "internalType": "bool",
          "name": "hasVoted",
          "type": "bool"
        },
        {
          "internalType": "enum VotingHubV1.Choice",
          "name": "voterChoice",
          "type": "uint8"
        },
        {
          "internalType": "uint256",
          "name": "votes",
          "type": "uint256"
        }
      ],
      "stateMutability": "view",
      "type": "function",
      "constant": true
    },
    {
      "inputs": [
        {
          "internalType": "address",
          "name": "_toRemove",
          "type": "address"
        }
      ],
      "name": "removeAuthorized",
      "outputs": [],
      "stateMutability": "nonpayable",
      "type": "function"
    },
    {
      "inputs": [],
      "name": "totalTollBurned",
      "outputs": [
        {
          "internalType": "uint256",
          "name": "",
          "type": "uint256"
        }
      ],
      "stateMutability": "view",
      "type": "function",
      "constant": true
    },
    {
      "inputs": [],
      "name": "totalTollCollected",
      "outputs": [
        {
          "internalType": "uint256",
          "name": "",
          "type": "uint256"
        }
      ],
      "stateMutability": "view",
      "type": "function",
      "constant": true
    },
    {
      "inputs": [
        {
          "internalType": "uint256",
          "name": "_rate",
          "type": "uint256"
        }
      ],
      "name": "setTollBurnRate",
      "outputs": [],
      "stateMutability": "nonpayable",
      "type": "function"
    },
    {
      "inputs": [
        {
          "internalType": "uint256",
          "name": "_proposalId",
          "type": "uint256"
        }
      ],
      "name": "getUniqueHash",
      "outputs": [
        {
          "internalType": "string",
          "name": "",
          "type": "string"
        }
      ],
      "stateMutability": "view",
      "type": "function",
      "constant": true
    },
    {
      "inputs": [
        {
          "internalType": "string",
          "name": "_description",
          "type": "string"
        },
        {
          "internalType": "uint256",
          "name": "_opens",
          "type": "uint256"
        },
        {
          "internalType": "uint256",
          "name": "_closes",
          "type": "uint256"
        },
        {
          "internalType": "uint256",
          "name": "_votingToll",
          "type": "uint256"
        },
        {
          "internalType": "uint256",
          "name": "_passingPerc",
          "type": "uint256"
        },
        {
          "internalType": "string",
          "name": "_uniqueHash",
          "type": "string"
        }
      ],
      "name": "propose",
      "outputs": [
        {
          "internalType": "uint256",
          "name": "",
          "type": "uint256"
        }
      ],
      "stateMutability": "nonpayable",
      "type": "function"
    },
    {
      "inputs": [
        {
          "internalType": "uint256",
          "name": "_proposalId",
          "type": "uint256"
        },
        {
          "internalType": "bool",
          "name": "_support",
          "type": "bool"
        }
      ],
      "name": "castVote",
      "outputs": [],
      "stateMutability": "payable",
      "type": "function",
      "payable": true
    },
    {
      "inputs": [
        {
          "internalType": "uint256",
          "name": "_proposalId",
          "type": "uint256"
        }
      ],
      "name": "castVote",
      "outputs": [],
      "stateMutability": "payable",
      "type": "function",
      "payable": true
    },
    {
      "inputs": [
        {
          "internalType": "uint256",
          "name": "_proposalId",
          "type": "uint256"
        },
        {
          "internalType": "address",
          "name": "_voter",
          "type": "address"
        }
      ],
      "name": "getReceipt",
      "outputs": [
        {
          "components": [
            {
              "internalType": "bool",
              "name": "hasVoted",
              "type": "bool"
            },
            {
              "internalType": "enum VotingHubV1.Choice",
              "name": "voterChoice",
              "type": "uint8"
            },
            {
              "internalType": "uint256",
              "name": "votes",
              "type": "uint256"
            }
          ],
          "internalType": "struct VotingHubV1.Receipt",
          "name": "",
          "type": "tuple"
        }
      ],
      "stateMutability": "view",
      "type": "function",
      "constant": true
    },
    {
      "inputs": [
        {
          "internalType": "uint256",
          "name": "_proposalId",
          "type": "uint256"
        }
      ],
      "name": "getProposal",
      "outputs": [
        {
          "components": [
            {
              "internalType": "uint256",
              "name": "id",
              "type": "uint256"
            },
            {
              "internalType": "address",
              "name": "proposer",
              "type": "address"
            },
            {
              "internalType": "bool",
              "name": "isProposerAuth",
              "type": "bool"
            },
            {
              "internalType": "uint256",
              "name": "opens",
              "type": "uint256"
            },
            {
              "internalType": "uint256",
              "name": "closes",
              "type": "uint256"
            },
            {
              "internalType": "uint256",
              "name": "toll",
              "type": "uint256"
            },
            {
              "internalType": "uint256",
              "name": "passingPerc",
              "type": "uint256"
            },
            {
              "internalType": "uint256",
              "name": "forVotes",
              "type": "uint256"
            },
            {
              "internalType": "uint256",
              "name": "againstVotes",
              "type": "uint256"
            },
            {
              "internalType": "uint256",
              "name": "nullVotes",
              "type": "uint256"
            },
            {
              "internalType": "enum VotingHubV1.ProposalState",
              "name": "currentState",
              "type": "uint8"
            }
          ],
          "internalType": "struct VotingHubV1.Proposal",
          "name": "",
          "type": "tuple"
        }
      ],
      "stateMutability": "view",
      "type": "function",
      "constant": true
    },
    {
      "inputs": [
        {
          "internalType": "uint256",
          "name": "_proposalId",
          "type": "uint256"
        }
      ],
      "name": "announceResults",
      "outputs": [],
      "stateMutability": "nonpayable",
      "type": "function"
    },
    {
      "inputs": [
        {
          "internalType": "uint256",
          "name": "_proposalId",
          "type": "uint256"
        }
      ],
      "name": "protectedAnnounceResults",
      "outputs": [],
      "stateMutability": "nonpayable",
      "type": "function"
    },
    {
      "inputs": [
        {
          "internalType": "uint256",
          "name": "_proposalId",
          "type": "uint256"
        }
      ],
      "name": "cancelProposal",
      "outputs": [],
      "stateMutability": "nonpayable",
      "type": "function"
    },
    {
      "inputs": [
        {
          "internalType": "uint256",
          "name": "_proposalId",
          "type": "uint256"
        }
      ],
      "name": "protectedCancelProposal",
      "outputs": [],
      "stateMutability": "nonpayable",
      "type": "function"
    },
    {
      "inputs": [],
      "name": "withdrawRemaining",
      "outputs": [],
      "stateMutability": "nonpayable",
      "type": "function"
    }
  ],
  "bytecode": "0x608060405234801561001057600080fd5b50604051620021f1380380620021f18339810160408190526100319161006f565b600580546001600160a01b039092166001600160a01b031992831617905560006006819055600180549092163317909155600381905560045561009f565b60006020828403121561008157600080fd5b81516001600160a01b038116811461009857600080fd5b9392505050565b61214280620000af6000396000f3fe6080604052600436106101815760003560e01c80638da5cb5b116100d1578063cf1c316a1161008a578063e0a8f6f511610064578063e0a8f6f514610529578063e23a9a5214610549578063ee38db9514610576578063fe9fbb801461058b57600080fd5b8063cf1c316a146104dd578063da35c664146104fd578063dd6e8c8e1461051357600080fd5b80638da5cb5b146103c957806396bf6b87146103e9578063a08ad97d146103ff578063a9fa47021461045a578063b918161114610470578063c7f758a8146104b057600080fd5b806326079b7d1161013e578063485d7d9411610118578063485d7d941461034957806361b8465a1461036957806368677f67146103895780637eda0e48146103a957600080fd5b806326079b7d146102f65780633eb76b9c146103165780634728f83a1461032957600080fd5b8063013cf08b1461018657806306fdde031461022c57806307604b1a1461024e57806309f9f9ed1461028657806315373e3d146102a857806317977c61146102bb575b600080fd5b34801561019257600080fd5b5061020c6101a1366004611946565b6009602081905260009182526040909120805460018201546002830154600384015460048501546005860154600687015460078801546008890154989099015496986001600160a01b03871698600160a01b90970460ff90811698969795969495939492939192168b565b6040516102239b9a99989796959493929190611989565b60405180910390f35b34801561023857600080fd5b506102416105c4565b6040516102239190611a42565b34801561025a57600080fd5b5060055461026e906001600160a01b031681565b6040516001600160a01b039091168152602001610223565b34801561029257600080fd5b506102a66102a1366004611946565b6105e0565b005b6102a66102b6366004611a55565b61069e565b3480156102c757600080fd5b506102e86102d6366004611aa1565b600a6020526000908152604090205481565b604051908152602001610223565b34801561030257600080fd5b506102a6610311366004611946565b610812565b6102a6610324366004611946565b610914565b34801561033557600080fd5b50610241610344366004611946565b610a7c565b34801561035557600080fd5b506102a6610364366004611aa1565b610b4f565b34801561037557600080fd5b506102a6610384366004611946565b610bd6565b34801561039557600080fd5b506102a66103a4366004611946565b610cb0565b3480156103b557600080fd5b506102e86103c4366004611b5f565b610d30565b3480156103d557600080fd5b5060015461026e906001600160a01b031681565b3480156103f557600080fd5b506102e860045481565b34801561040b57600080fd5b5061044b61041a366004611be8565b60076020908152600092835260408084209091529082529020805460019091015460ff808316926101009004169083565b60405161022393929190611c22565b34801561046657600080fd5b506102e860065481565b34801561047c57600080fd5b506104a061048b366004611aa1565b60006020819052908152604090205460ff1681565b6040519015158152602001610223565b3480156104bc57600080fd5b506104d06104cb366004611946565b611053565b6040516102239190611c46565b3480156104e957600080fd5b506102a66104f8366004611aa1565b611128565b34801561050957600080fd5b506102e860025481565b34801561051f57600080fd5b506102e860035481565b34801561053557600080fd5b506102a6610544366004611946565b61119c565b34801561055557600080fd5b50610569610564366004611ce4565b61122b565b6040516102239190611d10565b34801561058257600080fd5b506102a66112bf565b34801561059757600080fd5b506104a06105a6366004611aa1565b6001600160a01b031660009081526020819052604090205460ff1690565b6040518060600160405280602481526020016120e96024913981565b6001546001600160a01b031633146106135760405162461bcd60e51b815260040161060a90611d3c565b60405180910390fd5b60648111156106995760405162461bcd60e51b815260206004820152604660248201527f566f74696e6748756256313a3a736574546f6c6c4275726e526174653a20746f60448201527f6c6c206275726e2072617465206d757374206265206265747765656e2030206160648201526506e64203130360d41b608482015260a40161060a565b600655565b333b156106bd5760405162461bcd60e51b815260040161060a90611d71565b3332146106dc5760405162461bcd60e51b815260040161060a90611dba565b60026000838152600960208190526040909120015460ff1660038111156107055761070561195f565b14156107235760405162461bcd60e51b815260040161060a90611e00565b61072c8261138b565b600082815260096020526040902060040154341461075c5760405162461bcd60e51b815260040161060a90611e4b565b610768600454346113f3565b60045560006108fc6107793461146a565b6040518115909202916000818181858888f193505050501580156107a1573d6000803e3d6000fd5b506107b66003546107b13461146a565b6113f3565b6003556005546001600160a01b03166108fc6107da346107d58161146a565b61148c565b6040518115909202916000818181858888f19350505050158015610802573d6000803e3d6000fd5b5061080e3383836114fd565b5050565b3360009081526020819052604090205460ff168061083a57506001546001600160a01b031633145b61084357600080fd5b600081815260096020526040902060015b600982015460ff16600381111561086d5761086d61195f565b146108d65760405162461bcd60e51b815260206004820152603360248201527f566f74696e6748756256313a3a63616e63656c50726f706f73616c3a2070726f604482015272706f73616c206973206e6f742061637469766560681b606482015260840161060a565b60098101805460ff1916600217905580546040517fa9257f9d0c375c52bac8f7010bf9ee592a943ac8f8fbad61dea6a8487e28310890600090a25050565b333b156109335760405162461bcd60e51b815260040161060a90611d71565b3332146109525760405162461bcd60e51b815260040161060a90611dba565b60026000828152600960208190526040909120015460ff16600381111561097b5761097b61195f565b14156109995760405162461bcd60e51b815260040161060a90611e00565b6109a28161138b565b60008181526009602052604090206004015434146109d25760405162461bcd60e51b815260040161060a90611e4b565b6109de600454346113f3565b60045560006108fc6109ef3461146a565b6040518115909202916000818181858888f19350505050158015610a17573d6000803e3d6000fd5b50610a276003546107b13461146a565b6003556005546001600160a01b03166108fc610a46346107d58161146a565b6040518115909202916000818181858888f19350505050158015610a6e573d6000803e3d6000fd5b50610a793382611646565b50565b3360009081526020819052604090205460609060ff1680610aa757506001546001600160a01b031633145b610ab057600080fd5b60008281526008602052604090208054610ac990611e9c565b80601f0160208091040260200160405190810160405280929190818152602001828054610af590611e9c565b8015610b425780601f10610b1757610100808354040283529160200191610b42565b820191906000526020600020905b815481529060010190602001808311610b2557829003601f168201915b505050505090505b919050565b6001546001600160a01b03163314610b795760405162461bcd60e51b815260040161060a90611d3c565b6001600160a01b038116610b9f5760405162461bcd60e51b815260040161060a90611ed7565b6001600160a01b038116331415610bb557600080fd5b6001600160a01b03166000908152602081905260409020805460ff19169055565b610bdf8161138b565b60008181526009602052604090206003600982015460ff166003811115610c0857610c0861195f565b14610c255760405162461bcd60e51b815260040161060a90611f26565b60018101546001600160a01b03163314610ca75760405162461bcd60e51b815260206004820152603e60248201527f566f74696e6748756256313a3a636c6f736550726f706f73616c3a206f6e6c7960448201527f2070726f706f7365722063616e20616e6e6f756e636520726573756c74730000606482015260840161060a565b61080e82611759565b3360009081526020819052604090205460ff1680610cd857506001546001600160a01b031633145b610ce157600080fd5b610cea8161138b565b60008181526009602052604090206003600982015460ff166003811115610d1357610d1361195f565b14610ca75760405162461bcd60e51b815260040161060a90611f26565b6000333b15610d515760405162461bcd60e51b815260040161060a90611d71565b333214610d705760405162461bcd60e51b815260040161060a90611dba565b336000908152600a60205260409020548015610e45576000818152600960208190526040909120015460ff166001816003811115610db057610db061195f565b1415610e435760405162461bcd60e51b815260206004820152605660248201527f566f74696e6748756256313a3a70726f706f73653a206f6e65206c697665207060448201527f726f706f73616c207065722070726f706f7365722c20666f756e6420616e20616064820152751b1c9958591e481858dd1a5d99481c1c9bdc1bdcd85b60521b608482015260a40161060a565b505b60028054906000610e5583611f90565b909155505060408051610160810182526002548152336020808301829052600091825281905282812054909282019060ff161515815260200189815260200188815260200187670de0b6b3a7640000610eae9190611fab565b815260200186815260200160008152602001600081526020016000815260200160006003811115610ee157610ee161195f565b90528051600090815260096020818152604092839020845181559084015160018083018054958701511515600160a01b026001600160a81b03199096166001600160a01b039093169290921794909417905560608401516002820155608084015160038083019190915560a0850151600483015560c0850151600583015560e0850151600683015561010085015160078301556101208501516008830155610140850151928201805495965086959294909260ff1916918490811115610fa957610fa961195f565b02179055505081516020808401516001600160a01b03166000908152600a82526040808220939093558451815260088252919091208651610fef93509091870190611838565b5080602001516001600160a01b031681600001517fa00fcf4f5e03cc2f4818b8f380a8f2a06479e49bf0765e5fec09aebdaf922bbc836060015184608001518d60405161103e93929190611fca565b60405180910390a35198975050505050505050565b61105b6118bc565b6000828152600960208181526040928390208351610160810185528154815260018201546001600160a01b0381169382019390935260ff600160a01b9093048316151594810194909452600281015460608501526003808201546080860152600482015460a0860152600582015460c0860152600682015460e086015260078201546101008601526008820154610120860152928101549092610140850192919091169081111561110e5761110e61195f565b600381111561111f5761111f61195f565b90525092915050565b6001546001600160a01b031633146111525760405162461bcd60e51b815260040161060a90611d3c565b6001600160a01b0381166111785760405162461bcd60e51b815260040161060a90611ed7565b6001600160a01b03166000908152602081905260409020805460ff19166001179055565b600081815260096020526040902060018101546001600160a01b031633146112245760405162461bcd60e51b815260206004820152603560248201527f566f74696e6748756256313a3a63616e63656c50726f706f73616c3a206f6e6c6044820152741e481c1c9bdc1bdcd95c8818d85b8818d85b98d95b605a1b606482015260840161060a565b6001610854565b6040805160608082018352600080835260208084018290528385018290526001600160a01b0386168252600781528482208783528152908490208451928301909452835460ff8082161515845293949293918401916101009091041660028111156112985761129861195f565b60028111156112a9576112a961195f565b8152602001600182015481525050905092915050565b6001546001600160a01b031633146112e95760405162461bcd60e51b815260040161060a90611d3c565b6000471161135f5760405162461bcd60e51b815260206004820152603760248201527f566f74696e6748756256313a3a77697468647261776e52656d61696e696e673a60448201527f206e6f2062616c616e636520746f207769746864726177000000000000000000606482015260840161060a565b60405133904780156108fc02916000818181858888f19350505050158015610a79573d6000803e3d6000fd5b600081815260096020526040902060038101544211156113c0576009810180546003919060ff19166001835b02179055505050565b42816002015411156113e2576009810180546000919060ff19166001836113b7565b600901805460ff1916600117905550565b6000806114008385611ff2565b9050838110156114635760405162461bcd60e51b815260206004820152602860248201527f566f74696e6748756256313a3a536166654d6174683a206164646974696f6e206044820152676f766572666c6f7760c01b606482015260840161060a565b9392505050565b600060646006548361147c9190611fab565b611486919061200a565b92915050565b6000828211156114f35760405162461bcd60e51b815260206004820152602c60248201527f566f74696e6748756256313a3a536166654d6174683a2073756274726163746960448201526b6f6e20756e646572666c6f7760a01b606482015260840161060a565b611463828461202c565b60016000838152600960208190526040909120015460ff1660038111156115265761152661195f565b146115435760405162461bcd60e51b815260040161060a90612043565b60008281526009602090815260408083206001600160a01b038716845260078352818420868552909252909120805460ff16156115925760405162461bcd60e51b815260040161060a9061208a565b82156115ba576115a7826006015460016113f3565b6006830155805461ff00191681556115dc565b6115c9826007015460016113f3565b6007830155805461ff0019166101001781555b805460ff1916600190811780835582820182905583546040516001600160a01b038916937f2c9deb38f462962eadbd85a9d3a4120503ee091f1582eaaa10aa8c6797651d2993611637939261010090910460ff1691906120d4565b60405180910390a25050505050565b60016000828152600960208190526040909120015460ff16600381111561166f5761166f61195f565b1461168c5760405162461bcd60e51b815260040161060a90612043565b60008181526009602090815260408083206001600160a01b038616845260078352818420858552909252909120805460ff16156116db5760405162461bcd60e51b815260040161060a9061208a565b6116ea826008015460016113f3565b6008830155805461ffff191661020117808255600180830181905583546040516001600160a01b038816937f2c9deb38f462962eadbd85a9d3a4120503ee091f1582eaaa10aa8c6797651d299361174b939261010090920460ff16916120d4565b60405180910390a250505050565b60008181526009602052604081206006810154600782015491929161177e91906113f3565b9050600081836006015460646117949190611fab565b61179e919061200a565b905082600501548111156118065782600001547f4ae399a3fb05b716c4966152299510321fe8e6c2750c18c6947df1b711e6fc586117e4856006015486600701546113f3565b60068601546040805192835260208301919091520160405180910390a2611832565b82546040517fa9257f9d0c375c52bac8f7010bf9ee592a943ac8f8fbad61dea6a8487e28310890600090a25b50505050565b82805461184490611e9c565b90600052602060002090601f01602090048101928261186657600085556118ac565b82601f1061187f57805160ff19168380011785556118ac565b828001600101855582156118ac579182015b828111156118ac578251825591602001919060010190611891565b506118b8929150611931565b5090565b6040518061016001604052806000815260200160006001600160a01b03168152602001600015158152602001600081526020016000815260200160008152602001600081526020016000815260200160008152602001600081526020016000600381111561192c5761192c61195f565b905290565b5b808211156118b85760008155600101611932565b60006020828403121561195857600080fd5b5035919050565b634e487b7160e01b600052602160045260246000fd5b600481106119855761198561195f565b9052565b6000610160820190508c825260018060a01b038c1660208301528a151560408301528960608301528860808301528760a08301528660c08301528560e083015284610100830152836101208301526119e5610140830184611975565b9c9b505050505050505050505050565b6000815180845260005b81811015611a1b576020818501810151868301820152016119ff565b81811115611a2d576000602083870101525b50601f01601f19169290920160200192915050565b60208152600061146360208301846119f5565b60008060408385031215611a6857600080fd5b8235915060208301358015158114611a7f57600080fd5b809150509250929050565b80356001600160a01b0381168114610b4a57600080fd5b600060208284031215611ab357600080fd5b61146382611a8a565b634e487b7160e01b600052604160045260246000fd5b600082601f830112611ae357600080fd5b813567ffffffffffffffff80821115611afe57611afe611abc565b604051601f8301601f19908116603f01168101908282118183101715611b2657611b26611abc565b81604052838152866020858801011115611b3f57600080fd5b836020870160208301376000602085830101528094505050505092915050565b60008060008060008060c08789031215611b7857600080fd5b863567ffffffffffffffff80821115611b9057600080fd5b611b9c8a838b01611ad2565b97506020890135965060408901359550606089013594506080890135935060a0890135915080821115611bce57600080fd5b50611bdb89828a01611ad2565b9150509295509295509295565b60008060408385031215611bfb57600080fd5b611c0483611a8a565b946020939093013593505050565b600381106119855761198561195f565b831515815260608101611c386020830185611c12565b826040830152949350505050565b81518152602080830151610160830191611c6a908401826001600160a01b03169052565b506040830151611c7e604084018215159052565b50606083015160608301526080830151608083015260a083015160a083015260c083015160c083015260e083015160e083015261010080840151818401525061012080840151818401525061014080840151611cdc82850182611975565b505092915050565b60008060408385031215611cf757600080fd5b82359150611d0760208401611a8a565b90509250929050565b8151151581526020808301516060830191611d2d90840182611c12565b50604092830151919092015290565b6020808252818101527f4f776e61626c653a2063616c6c6572206973206e6f7420746865206f776e6572604082015260600190565b60208082526029908201527f504f5254414c45533a20636f6e7472616374206973206e6f7420616c6c6f776560408201526806420746f20737761760bc1b606082015260800190565b60208082526026908201527f504f5254414c45533a206e6f2070726f787920636f6e747261637420697320616040820152651b1b1bddd95960d21b606082015260800190565b6020808252602b908201527f566f74696e6748756256313a3a63617374566f74653a2070726f706f73616c2060408201526a1a5cc818d85b98d95b195960aa1b606082015260800190565b60208082526031908201527f566f74696e6748756256313a3a63617374566f74653a20746f6c6c20616d6f756040820152701b9d081a5cc81b9bdd0818dbdc9c9958dd607a1b606082015260800190565b600181811c90821680611eb057607f821691505b60208210811415611ed157634e487b7160e01b600052602260045260246000fd5b50919050565b6020808252602f908201527f417574686f72697a61626c653a206e657720617574686f72697479206973207460408201526e6865207a65726f206164647265737360881b606082015260800190565b60208082526034908201527f566f74696e6748756256313a3a636c6f736550726f706f73616c3a2070726f706040820152731bdcd85b081a5cc81b9bdd08199a5b9a5cda195960621b606082015260800190565b634e487b7160e01b600052601160045260246000fd5b6000600019821415611fa457611fa4611f7a565b5060010190565b6000816000190483118215151615611fc557611fc5611f7a565b500290565b838152826020820152606060408201526000611fe960608301846119f5565b95945050505050565b6000821982111561200557612005611f7a565b500190565b60008261202757634e487b7160e01b600052601260045260246000fd5b500490565b60008282101561203e5761203e611f7a565b500390565b60208082526027908201527f566f74696e6748756256313a3a63617374566f74653a20766f74696e672069736040820152660818db1bdcd95960ca1b606082015260800190565b6020808252602a908201527f566f74696e6748756256313a3a63617374566f74653a20766f74657220616c726040820152691958591e481d9bdd195960b21b606082015260800190565b83815260608101611c386020830185611c1256fe584443204e6574776f726b20566f74696e6720536d61727420436f6e7472616374205631a26469706673582212201b48f3d9d7721806b2cea2444b7ba021cf23bc0e3ebd37067d57a9c51514e3d464736f6c634300080c0033",
  "immutableReferences": {},
  "source": "// SPDX-License-Identifier: MIT\n\npragma solidity 0.8.12;\n\nimport \"./AccessManager.sol\";\n\ncontract VotingHubV1 is AccessManager {\n    /// @notice The name of this contract\n    string public constant name = \"XDC Network Voting Smart Contract V1\";\n\n    /// @notice number of proposals in existance\n    uint public proposalCount;\n\n    /// @notice Total value burned in tolls\n    uint public totalTollBurned;\n\n    /// @notice Total value collected in tolls\n    uint public totalTollCollected;\n\n    /// @notice address of the Community Treasury\n    address public TREASURY_ADDRESS;\n\n    /// @notice toll burn rate\n    uint public TOLL_BURN_RATE;\n\n    /// @notice Possible states that a proposal may be in\n    enum ProposalState {\n        pending,\n        active,\n        canceled,\n        finished\n    }\n\n    /// @notice Voter possible choices\n    enum Choice {\n        support,\n        against,\n        abstain\n    }\n\n    /// @notice Ballot receipt record for a voter\n    struct Receipt {\n        /// @notice Whether or not a vote has been cast\n        bool hasVoted;\n        /// @notice Whether or not the voter supports the proposal\n        Choice voterChoice;\n        /// @notice The number of votes the voter had, which were cast\n        uint256 votes;\n    }\n\n    struct Proposal {\n        /// @notice Proposal unique ID\n        uint256 id;\n        /// @notice Proposer address\n        address proposer;\n        /// @notice Flag if proposer is an Authorized individual\n        bool isProposerAuth;\n        /// @notice Timestamp at which the proposal will be open to new votes\n        uint256 opens;\n        /// @notice Timestamp at which the proposal will be closed to new votes\n        uint256 closes;\n        /// @notice Number of native coins necessary to cast a vote\n        uint256 toll;\n        /// @notice Passing Vote Percentage\n        uint passingPerc;\n        /// @notice Current number of votes in favor of this proposal\n        uint forVotes;\n        /// @notice Current number of votes in opposition to this proposal\n        uint againstVotes;\n        /// @notice Null Votes\n        uint nullVotes;\n        /// @notice Proposal State\n        ProposalState currentState;\n    }\n\n    /// @notice Receipts of ballots for the entire set of voters\n    mapping (address => mapping (uint => Receipt)) public receipts;\n\n    /// @notice Proposal unique hash\n    mapping (uint => string) private proposalUniqueHash;\n\n    /// @notice The official record of all proposals ever proposed\n    mapping (uint => Proposal) public proposals;\n    \n    /// @notice The latest proposal for each proposer\n    mapping (address => uint) public latestProposalIds;\n\n    /// @notice An event emitted when a new proposal is created\n    event ProposalCreated(uint256 indexed id, address indexed proposer, uint256 opens, uint256 closes, string uniqueHash);\n\n    /// @notice An event emitted when a vote has been cast on a proposal\n    event VoteCast(address indexed voter, uint proposalId, Choice voterChoice, uint256 votes);\n\n    /// @notice An event emitted when a proposal doesn't reach the minimum passing percentage\n    event ProposalFailed(uint256 indexed id);\n\n    /// @notice An event emitted when a proposal reach the minimum passing percentage\n    event ProposalPassed(uint256 indexed id, uint256 totalVotes, uint256 votesInFavor);\n\n    /**\n     * @notice Construct a new VotingHubV1 contract \n     * @param _treasury - community treasury wallet address \n     **/\n    constructor(address _treasury) {\n        TREASURY_ADDRESS = _treasury;\n        TOLL_BURN_RATE = 0;\n        owner = msg.sender;\n        totalTollBurned = 0;\n        totalTollCollected = 0;\n    }\n\n    /**\n     * @notice Set TOLL_BURN_RATE \n     * @param _rate - Must be a value between 0 and 100\n     **/\n    function setTollBurnRate (uint _rate) public onlyOwner {\n        require(_rate <= 100, \"VotingHubV1::setTollBurnRate: toll burn rate must be between 0 and 100\");\n        require(_rate >= 0, \"VotingHubV1::setTollBurnRate: toll burn rate must be between 0 and 100\");\n        TOLL_BURN_RATE = _rate;\n    }\n\n    /**\n     * @notice Get proposal unique hash \n     * @param _proposalId - Is the id of proposal\n     * @return string - proposal unique hash used to identify proposal in the voting dapp backend\n     **/\n    function getUniqueHash (uint256 _proposalId) public view onlyAuthorized returns (string memory)  {\n        return proposalUniqueHash[_proposalId];\n    }\n\n    /**\n     * @notice Create a new proposal \n     * @param _description - Proposal description\n     * @param _opens - Timestamp at which the proposal will be open to new votes\n     * @param _closes - Timestamp at which the proposal will be closed to new votes\n     * @param _votingToll - Number of native coins necessary to cast a vote\n     * @param _passingPerc - Passing Vote Percentage\n     * @param _uniqueHash - Proposal unique hash used to identify proposal in the voting dapp backend\n     * @return uint - proposal id\n     **/\n    function propose(string memory _description, uint256 _opens, uint256 _closes, uint256 _votingToll, uint256 _passingPerc, string memory _uniqueHash) public notContract returns (uint) {\n        \n        uint latestProposalId = latestProposalIds[msg.sender];\n        if (latestProposalId != 0) {\n          ProposalState proposersLatestProposalState = proposals[latestProposalId].currentState;\n          require(proposersLatestProposalState != ProposalState.active, \"VotingHubV1::propose: one live proposal per proposer, found an already active proposal\");\n        }\n\n        proposalCount++;\n        Proposal memory newProposal = Proposal({\n            id: proposalCount,\n            proposer: msg.sender,\n            isProposerAuth: isAuthorized(msg.sender),\n            opens: _opens,\n            closes: _closes,\n            toll: _votingToll * 10 ** 18,\n            passingPerc: _passingPerc,\n            forVotes: 0,\n            againstVotes: 0,\n            nullVotes: 0,\n            currentState: ProposalState.pending\n        });\n\n        proposals[newProposal.id] = newProposal;\n        latestProposalIds[newProposal.proposer] = newProposal.id;\n        proposalUniqueHash[newProposal.id] = _uniqueHash;\n\n        emit ProposalCreated(newProposal.id, newProposal.proposer, newProposal.opens, newProposal.closes, _description);\n        return newProposal.id;        \n    }\n\n    /**\n     * @notice Calculate toll that will be send to the zero address \n     * @param _toll - voting toll\n     * @dev this is a helper function to calculate the toll that will be burned\n     **/\n    function _calculateTollBurned(uint256 _toll) internal view returns (uint) {\n        return (_toll * TOLL_BURN_RATE) / 100;\n    }\n\n    /**\n     * @notice Cast a vote on a proposal \n     * @param _proposalId - Is the id of proposal\n     * @param _support - Is a boolean that represent the vote choice\n     **/\n    function castVote(uint256 _proposalId, bool _support) public notContract payable {\n        require(proposals[_proposalId].currentState != ProposalState.canceled, \"VotingHubV1::castVote: proposal is canceled\");\n        _updatedStatus(_proposalId);\n        require(msg.value == proposals[_proposalId].toll, \"VotingHubV1::castVote: toll amount is not correct\");\n        totalTollCollected = add256(totalTollCollected, msg.value);\n        payable(address(0)).transfer(_calculateTollBurned(msg.value));\n        totalTollBurned = add256(totalTollBurned, _calculateTollBurned(msg.value));\n        payable(address(TREASURY_ADDRESS)).transfer(sub256(msg.value, _calculateTollBurned(msg.value)));\n        return _castVote(msg.sender, _proposalId, _support);\n    }\n\n    /**\n     * @notice Abstain from voting but still contribute a voting toll\n     * @param _proposalId - Is the id of proposal\n     **/\n\n    function castVote(uint256 _proposalId) public notContract payable {\n        require(proposals[_proposalId].currentState != ProposalState.canceled, \"VotingHubV1::castVote: proposal is canceled\");\n        _updatedStatus(_proposalId);\n        require(msg.value == proposals[_proposalId].toll, \"VotingHubV1::castVote: toll amount is not correct\");\n        totalTollCollected = add256(totalTollCollected, msg.value);\n        payable(address(0)).transfer(_calculateTollBurned(msg.value));\n        totalTollBurned = add256(totalTollBurned, _calculateTollBurned(msg.value));\n        payable(address(TREASURY_ADDRESS)).transfer(sub256(msg.value, _calculateTollBurned(msg.value)));\n        return _castVote(msg.sender, _proposalId);\n    }\n\n    function _castVote(address _voter, uint256 _proposalId, bool _support) internal {\n        require(proposals[_proposalId].currentState == ProposalState.active, \"VotingHubV1::castVote: voting is closed\");\n        Proposal storage proposal = proposals[_proposalId];\n        Receipt storage receipt = receipts[_voter][_proposalId];\n        require(receipt.hasVoted == false, \"VotingHubV1::castVote: voter already voted\");\n\n        if(_support) {\n            proposal.forVotes = add256(proposal.forVotes, 1);\n            receipt.voterChoice = Choice.support;\n        } else {\n            proposal.againstVotes = add256(proposal.againstVotes, 1);\n            receipt.voterChoice = Choice.against;\n        }\n\n        receipt.hasVoted = true;\n        receipt.votes = 1;\n\n        emit VoteCast(_voter, proposal.id, receipt.voterChoice, receipt.votes);\n    }\n\n    function _castVote(address _voter, uint256 _proposalId) internal {\n        require(proposals[_proposalId].currentState == ProposalState.active, \"VotingHubV1::castVote: voting is closed\");\n        Proposal storage proposal = proposals[_proposalId];\n        Receipt storage receipt = receipts[_voter][_proposalId];\n        require(receipt.hasVoted == false, \"VotingHubV1::castVote: voter already voted\");\n\n        proposal.nullVotes = add256(proposal.nullVotes, 1);\n        receipt.voterChoice = Choice.abstain;\n\n        receipt.hasVoted = true;\n        receipt.votes = 1;\n\n         emit VoteCast(_voter, proposal.id, receipt.voterChoice, receipt.votes);\n    }\n\n    /**\n     * @notice Get the receipt of a voter on a proposal\n     * @param _proposalId - Is the id of proposal\n     * @param _voter - Is the address of the voter\n     * @return Receipt - The receipt of the voter on the proposal\n     **/\n    function getReceipt(uint256 _proposalId, address _voter) public view returns (Receipt memory) {\n        return receipts[_voter][_proposalId];\n    }\n\n    /**\n     * @notice Get the proposal by id\n     * @param _proposalId - Is the id of proposal\n     * @return Proposal - It returns the proposal struct with all its details\n     **/\n    function getProposal(uint256 _proposalId) public view returns (Proposal memory) {\n        return proposals[_proposalId];\n    }\n\n    function _updatedStatus(uint256 _proposalId) internal {\n        Proposal storage proposal = proposals[_proposalId];\n        if (proposal.closes < block.timestamp) {\n            proposal.currentState = ProposalState.finished;\n        } else if(proposal.opens > block.timestamp) {\n            proposal.currentState = ProposalState.pending;\n        } else {\n            proposal.currentState = ProposalState.active;\n        }\n    }\n\n    function add256(uint256 a, uint256 b) internal pure returns (uint) {\n        uint c = a + b;\n        require(c >= a, \"VotingHubV1::SafeMath: addition overflow\");\n        return c;\n    }\n\n    function sub256(uint256 a, uint256 b) internal pure returns (uint) {\n        require(b <= a, \"VotingHubV1::SafeMath: subtraction underflow\");\n        return a - b;\n    }\n\n    /**\n     * @notice Emit an event announcing the results of a proposal\n     * @param _proposalId - Is the id of proposal\n     **/\n    function announceResults(uint256 _proposalId) public {\n        _updatedStatus(_proposalId);\n        Proposal storage proposal = proposals[_proposalId];\n        require(proposal.currentState == ProposalState.finished, \"VotingHubV1::closeProposal: proposal is not finished\");\n        require(msg.sender == proposal.proposer, \"VotingHubV1::closeProposal: only proposer can announce results\");\n        _checkProposal(_proposalId);\n    }\n\n    /**\n     * @notice Protected function to emit an event announcing the results of a proposal\n     * @param _proposalId - Is the id of proposal\n     **/\n    function protectedAnnounceResults(uint256 _proposalId) public onlyAuthorized {\n        _updatedStatus(_proposalId);\n        Proposal storage proposal = proposals[_proposalId];\n        require(proposal.currentState == ProposalState.finished, \"VotingHubV1::closeProposal: proposal is not finished\");\n        _checkProposal(_proposalId);\n    }\n\n    function _checkProposal(uint256 _proposalId) private {\n        Proposal storage proposal = proposals[_proposalId];\n        uint256 totalVotes = add256(proposal.forVotes, proposal.againstVotes);\n        uint forPercentage = proposal.forVotes * 100 / totalVotes;\n        if (forPercentage > proposal.passingPerc) {\n            emit ProposalPassed(proposal.id, add256(proposal.forVotes, proposal.againstVotes), proposal.forVotes);\n        } else {\n            emit ProposalFailed(proposal.id);\n        }\n    }\n\n    /**\n     * @notice Function to allow proposer can cancel his proposal\n     * @param _proposalId - Is the id of proposal\n     **/\n    function cancelProposal(uint256 _proposalId) public {\n        Proposal storage proposal = proposals[_proposalId];\n        require(proposal.proposer == msg.sender, \"VotingHubV1::cancelProposal: only proposer can cancel\");\n        require(proposal.currentState == ProposalState.active, \"VotingHubV1::cancelProposal: proposal is not active\");\n        proposal.currentState = ProposalState.canceled;\n        emit ProposalFailed(proposal.id);\n    }\n\n    /**\n     * @notice Function to allow authorized individuals (and contract owner) to cancel a proposal\n     * @param _proposalId - Is the id of proposal\n     **/\n    function protectedCancelProposal(uint256 _proposalId) public onlyAuthorized {\n        Proposal storage proposal = proposals[_proposalId];\n        require(proposal.currentState == ProposalState.active, \"VotingHubV1::cancelProposal: proposal is not active\");\n        proposal.currentState = ProposalState.canceled;\n        emit ProposalFailed(proposal.id);\n    }\n\n    /**\n     * @notice In a few cases, residual funds may be left in the contract. This function allows the owner to withdraw them.\n     * @dev This function is only callable by the owner. \n     * @dev This function is only callable if there are funds left in the contract.\n    **/\n     function withdrawRemaining() external onlyOwner {\n        require(address(this).balance > 0, \"VotingHubV1::withdrawnRemaining: no balance to withdraw\");\n        payable(msg.sender).transfer(address(this).balance);\n    }\n}\n\n",
  "sourcePath": "/home/menezes/voting-dapp/contracts/VotingHub.sol",
  "compiler": {
    "name": "solc",
    "version": "0.8.12+commit.f00d7308.Emscripten.clang"
  },
  "schemaVersion": "3.4.10",
  "updatedAt": "2022-12-19T21:19:28.823Z",
  "networkType": "ethereum",
  "devdoc": {
    "kind": "dev",
    "methods": {
      "announceResults(uint256)": {
        "params": {
          "_proposalId": "- Is the id of proposal*"
        }
      },
      "cancelProposal(uint256)": {
        "params": {
          "_proposalId": "- Is the id of proposal*"
        }
      },
      "castVote(uint256)": {
        "params": {
          "_proposalId": "- Is the id of proposal*"
        }
      },
      "castVote(uint256,bool)": {
        "params": {
          "_proposalId": "- Is the id of proposal",
          "_support": "- Is a boolean that represent the vote choice*"
        }
      },
      "constructor": {
        "params": {
          "_treasury": "- community treasury wallet address *"
        }
      },
      "getProposal(uint256)": {
        "params": {
          "_proposalId": "- Is the id of proposal"
        },
        "returns": {
          "_0": "Proposal - It returns the proposal struct with all its details*"
        }
      },
      "getReceipt(uint256,address)": {
        "params": {
          "_proposalId": "- Is the id of proposal",
          "_voter": "- Is the address of the voter"
        },
        "returns": {
          "_0": "Receipt - The receipt of the voter on the proposal*"
        }
      },
      "getUniqueHash(uint256)": {
        "params": {
          "_proposalId": "- Is the id of proposal"
        },
        "returns": {
          "_0": "string - proposal unique hash used to identify proposal in the voting dapp backend*"
        }
      },
      "propose(string,uint256,uint256,uint256,uint256,string)": {
        "params": {
          "_closes": "- Timestamp at which the proposal will be closed to new votes",
          "_description": "- Proposal description",
          "_opens": "- Timestamp at which the proposal will be open to new votes",
          "_passingPerc": "- Passing Vote Percentage",
          "_uniqueHash": "- Proposal unique hash used to identify proposal in the voting dapp backend",
          "_votingToll": "- Number of native coins necessary to cast a vote"
        },
        "returns": {
          "_0": "uint - proposal id*"
        }
      },
      "protectedAnnounceResults(uint256)": {
        "params": {
          "_proposalId": "- Is the id of proposal*"
        }
      },
      "protectedCancelProposal(uint256)": {
        "params": {
          "_proposalId": "- Is the id of proposal*"
        }
      },
      "setTollBurnRate(uint256)": {
        "params": {
          "_rate": "- Must be a value between 0 and 100*"
        }
      },
      "withdrawRemaining()": {
        "details": "This function is only callable by the owner. This function is only callable if there are funds left in the contract.*"
      }
    },
    "version": 1
  },
  "userdoc": {
    "events": {
      "OwnershipTransferred(address,address)": {
        "notice": "An event emitted when this contract ownership is transferred"
      },
      "ProposalCreated(uint256,address,uint256,uint256,string)": {
        "notice": "An event emitted when a new proposal is created"
      },
      "ProposalFailed(uint256)": {
        "notice": "An event emitted when a proposal doesn't reach the minimum passing percentage"
      },
      "ProposalPassed(uint256,uint256,uint256)": {
        "notice": "An event emitted when a proposal reach the minimum passing percentage"
      },
      "VoteCast(address,uint256,uint8,uint256)": {
        "notice": "An event emitted when a vote has been cast on a proposal"
      }
    },
    "kind": "user",
    "methods": {
      "TOLL_BURN_RATE()": {
        "notice": "toll burn rate"
      },
      "TREASURY_ADDRESS()": {
        "notice": "address of the Community Treasury"
      },
      "announceResults(uint256)": {
        "notice": "Emit an event announcing the results of a proposal"
      },
      "authorized(address)": {
        "notice": "authorized addresses with proposal management privileges"
      },
      "cancelProposal(uint256)": {
        "notice": "Function to allow proposer can cancel his proposal"
      },
      "castVote(uint256)": {
        "notice": "Abstain from voting but still contribute a voting toll"
      },
      "castVote(uint256,bool)": {
        "notice": "Cast a vote on a proposal "
      },
      "constructor": {
        "notice": "Construct a new VotingHubV1 contract "
      },
      "getProposal(uint256)": {
        "notice": "Get the proposal by id"
      },
      "getReceipt(uint256,address)": {
        "notice": "Get the receipt of a voter on a proposal"
      },
      "getUniqueHash(uint256)": {
        "notice": "Get proposal unique hash "
      },
      "latestProposalIds(address)": {
        "notice": "The latest proposal for each proposer"
      },
      "name()": {
        "notice": "The name of this contract"
      },
      "owner()": {
        "notice": "contract owner"
      },
      "proposalCount()": {
        "notice": "number of proposals in existance"
      },
      "proposals(uint256)": {
        "notice": "The official record of all proposals ever proposed"
      },
      "propose(string,uint256,uint256,uint256,uint256,string)": {
        "notice": "Create a new proposal "
      },
      "protectedAnnounceResults(uint256)": {
        "notice": "Protected function to emit an event announcing the results of a proposal"
      },
      "protectedCancelProposal(uint256)": {
        "notice": "Function to allow authorized individuals (and contract owner) to cancel a proposal"
      },
      "receipts(address,uint256)": {
        "notice": "Receipts of ballots for the entire set of voters"
      },
      "setTollBurnRate(uint256)": {
        "notice": "Set TOLL_BURN_RATE "
      },
      "totalTollBurned()": {
        "notice": "Total value burned in tolls"
      },
      "totalTollCollected()": {
        "notice": "Total value collected in tolls"
      },
      "withdrawRemaining()": {
        "notice": "In a few cases, residual funds may be left in the contract. This function allows the owner to withdraw them."
      }
    },
    "version": 1
  }
}